{
  "contractName": "MemoryToEarn",
  "abi": [
    {
      "inputs": [],
      "stateMutability": "nonpayable",
      "type": "constructor"
    },
    {
      "anonymous": false,
      "inputs": [
        {
          "indexed": true,
          "internalType": "address",
          "name": "owner",
          "type": "address"
        },
        {
          "indexed": true,
          "internalType": "address",
          "name": "spender",
          "type": "address"
        },
        {
          "indexed": false,
          "internalType": "uint256",
          "name": "value",
          "type": "uint256"
        }
      ],
      "name": "Approval",
      "type": "event"
    },
    {
      "anonymous": false,
      "inputs": [
        {
          "indexed": true,
          "internalType": "bytes32",
          "name": "role",
          "type": "bytes32"
        },
        {
          "indexed": true,
          "internalType": "bytes32",
          "name": "previousAdminRole",
          "type": "bytes32"
        },
        {
          "indexed": true,
          "internalType": "bytes32",
          "name": "newAdminRole",
          "type": "bytes32"
        }
      ],
      "name": "RoleAdminChanged",
      "type": "event"
    },
    {
      "anonymous": false,
      "inputs": [
        {
          "indexed": true,
          "internalType": "bytes32",
          "name": "role",
          "type": "bytes32"
        },
        {
          "indexed": true,
          "internalType": "address",
          "name": "account",
          "type": "address"
        },
        {
          "indexed": true,
          "internalType": "address",
          "name": "sender",
          "type": "address"
        }
      ],
      "name": "RoleGranted",
      "type": "event"
    },
    {
      "anonymous": false,
      "inputs": [
        {
          "indexed": true,
          "internalType": "bytes32",
          "name": "role",
          "type": "bytes32"
        },
        {
          "indexed": true,
          "internalType": "address",
          "name": "account",
          "type": "address"
        },
        {
          "indexed": true,
          "internalType": "address",
          "name": "sender",
          "type": "address"
        }
      ],
      "name": "RoleRevoked",
      "type": "event"
    },
    {
      "anonymous": false,
      "inputs": [
        {
          "indexed": true,
          "internalType": "address",
          "name": "from",
          "type": "address"
        },
        {
          "indexed": true,
          "internalType": "address",
          "name": "to",
          "type": "address"
        },
        {
          "indexed": false,
          "internalType": "uint256",
          "name": "value",
          "type": "uint256"
        }
      ],
      "name": "Transfer",
      "type": "event"
    },
    {
      "anonymous": false,
      "inputs": [
        {
          "indexed": true,
          "internalType": "address",
          "name": "holder",
          "type": "address"
        }
      ],
      "name": "burned",
      "type": "event"
    },
    {
      "anonymous": false,
      "inputs": [
        {
          "indexed": true,
          "internalType": "address",
          "name": "holder",
          "type": "address"
        }
      ],
      "name": "minted",
      "type": "event"
    },
    {
      "anonymous": false,
      "inputs": [
        {
          "indexed": true,
          "internalType": "address",
          "name": "holder",
          "type": "address"
        }
      ],
      "name": "newDiaryHolder",
      "type": "event"
    },
    {
      "inputs": [],
      "name": "DEFAULT_ADMIN_ROLE",
      "outputs": [
        {
          "internalType": "bytes32",
          "name": "",
          "type": "bytes32"
        }
      ],
      "stateMutability": "view",
      "type": "function",
      "constant": true
    },
    {
      "inputs": [],
      "name": "MINTER_ROLE",
      "outputs": [
        {
          "internalType": "bytes32",
          "name": "",
          "type": "bytes32"
        }
      ],
      "stateMutability": "view",
      "type": "function",
      "constant": true
    },
    {
      "inputs": [
        {
          "internalType": "address",
          "name": "owner",
          "type": "address"
        },
        {
          "internalType": "address",
          "name": "spender",
          "type": "address"
        }
      ],
      "name": "allowance",
      "outputs": [
        {
          "internalType": "uint256",
          "name": "",
          "type": "uint256"
        }
      ],
      "stateMutability": "view",
      "type": "function",
      "constant": true
    },
    {
      "inputs": [
        {
          "internalType": "address",
          "name": "spender",
          "type": "address"
        },
        {
          "internalType": "uint256",
          "name": "amount",
          "type": "uint256"
        }
      ],
      "name": "approve",
      "outputs": [
        {
          "internalType": "bool",
          "name": "",
          "type": "bool"
        }
      ],
      "stateMutability": "nonpayable",
      "type": "function"
    },
    {
      "inputs": [
        {
          "internalType": "address",
          "name": "account",
          "type": "address"
        }
      ],
      "name": "balanceOf",
      "outputs": [
        {
          "internalType": "uint256",
          "name": "",
          "type": "uint256"
        }
      ],
      "stateMutability": "view",
      "type": "function",
      "constant": true
    },
    {
      "inputs": [
        {
          "internalType": "address",
          "name": "account",
          "type": "address"
        },
        {
          "internalType": "uint256",
          "name": "amount",
          "type": "uint256"
        }
      ],
      "name": "burnFrom",
      "outputs": [],
      "stateMutability": "nonpayable",
      "type": "function"
    },
    {
      "inputs": [],
      "name": "decimals",
      "outputs": [
        {
          "internalType": "uint8",
          "name": "",
          "type": "uint8"
        }
      ],
      "stateMutability": "view",
      "type": "function",
      "constant": true
    },
    {
      "inputs": [
        {
          "internalType": "address",
          "name": "spender",
          "type": "address"
        },
        {
          "internalType": "uint256",
          "name": "subtractedValue",
          "type": "uint256"
        }
      ],
      "name": "decreaseAllowance",
      "outputs": [
        {
          "internalType": "bool",
          "name": "",
          "type": "bool"
        }
      ],
      "stateMutability": "nonpayable",
      "type": "function"
    },
    {
      "inputs": [
        {
          "internalType": "bytes32",
          "name": "role",
          "type": "bytes32"
        }
      ],
      "name": "getRoleAdmin",
      "outputs": [
        {
          "internalType": "bytes32",
          "name": "",
          "type": "bytes32"
        }
      ],
      "stateMutability": "view",
      "type": "function",
      "constant": true
    },
    {
      "inputs": [
        {
          "internalType": "bytes32",
          "name": "role",
          "type": "bytes32"
        },
        {
          "internalType": "address",
          "name": "account",
          "type": "address"
        }
      ],
      "name": "grantRole",
      "outputs": [],
      "stateMutability": "nonpayable",
      "type": "function"
    },
    {
      "inputs": [
        {
          "internalType": "bytes32",
          "name": "role",
          "type": "bytes32"
        },
        {
          "internalType": "address",
          "name": "account",
          "type": "address"
        }
      ],
      "name": "hasRole",
      "outputs": [
        {
          "internalType": "bool",
          "name": "",
          "type": "bool"
        }
      ],
      "stateMutability": "view",
      "type": "function",
      "constant": true
    },
    {
      "inputs": [
        {
          "internalType": "address",
          "name": "spender",
          "type": "address"
        },
        {
          "internalType": "uint256",
          "name": "addedValue",
          "type": "uint256"
        }
      ],
      "name": "increaseAllowance",
      "outputs": [
        {
          "internalType": "bool",
          "name": "",
          "type": "bool"
        }
      ],
      "stateMutability": "nonpayable",
      "type": "function"
    },
    {
      "inputs": [],
      "name": "name",
      "outputs": [
        {
          "internalType": "string",
          "name": "",
          "type": "string"
        }
      ],
      "stateMutability": "view",
      "type": "function",
      "constant": true
    },
    {
      "inputs": [
        {
          "internalType": "bytes32",
          "name": "role",
          "type": "bytes32"
        },
        {
          "internalType": "address",
          "name": "account",
          "type": "address"
        }
      ],
      "name": "renounceRole",
      "outputs": [],
      "stateMutability": "nonpayable",
      "type": "function"
    },
    {
      "inputs": [
        {
          "internalType": "bytes32",
          "name": "role",
          "type": "bytes32"
        },
        {
          "internalType": "address",
          "name": "account",
          "type": "address"
        }
      ],
      "name": "revokeRole",
      "outputs": [],
      "stateMutability": "nonpayable",
      "type": "function"
    },
    {
      "inputs": [
        {
          "internalType": "bytes4",
          "name": "interfaceId",
          "type": "bytes4"
        }
      ],
      "name": "supportsInterface",
      "outputs": [
        {
          "internalType": "bool",
          "name": "",
          "type": "bool"
        }
      ],
      "stateMutability": "view",
      "type": "function",
      "constant": true
    },
    {
      "inputs": [],
      "name": "symbol",
      "outputs": [
        {
          "internalType": "string",
          "name": "",
          "type": "string"
        }
      ],
      "stateMutability": "view",
      "type": "function",
      "constant": true
    },
    {
      "inputs": [],
      "name": "totalSupply",
      "outputs": [
        {
          "internalType": "uint256",
          "name": "",
          "type": "uint256"
        }
      ],
      "stateMutability": "view",
      "type": "function",
      "constant": true
    },
    {
      "inputs": [
        {
          "internalType": "address",
          "name": "to",
          "type": "address"
        },
        {
          "internalType": "uint256",
          "name": "amount",
          "type": "uint256"
        }
      ],
      "name": "transfer",
      "outputs": [
        {
          "internalType": "bool",
          "name": "",
          "type": "bool"
        }
      ],
      "stateMutability": "nonpayable",
      "type": "function"
    },
    {
      "inputs": [
        {
          "internalType": "address",
          "name": "from",
          "type": "address"
        },
        {
          "internalType": "address",
          "name": "to",
          "type": "address"
        },
        {
          "internalType": "uint256",
          "name": "amount",
          "type": "uint256"
        }
      ],
      "name": "transferFrom",
      "outputs": [
        {
          "internalType": "bool",
          "name": "",
          "type": "bool"
        }
      ],
      "stateMutability": "nonpayable",
      "type": "function"
    },
    {
      "inputs": [
        {
          "internalType": "address",
          "name": "to",
          "type": "address"
        },
        {
          "internalType": "uint256",
          "name": "amount",
          "type": "uint256"
        }
      ],
      "name": "mint",
      "outputs": [],
      "stateMutability": "nonpayable",
      "type": "function"
    },
    {
      "inputs": [
        {
          "internalType": "uint256",
          "name": "amount",
          "type": "uint256"
        }
      ],
      "name": "burn",
      "outputs": [],
      "stateMutability": "nonpayable",
      "type": "function"
    },
    {
      "inputs": [],
      "name": "burn",
      "outputs": [],
      "stateMutability": "nonpayable",
      "type": "function"
    },
    {
      "inputs": [],
      "name": "tempMint",
      "outputs": [],
      "stateMutability": "nonpayable",
      "type": "function"
    },
    {
      "inputs": [],
      "name": "createDiary",
      "outputs": [],
      "stateMutability": "nonpayable",
      "type": "function"
    },
    {
      "inputs": [],
      "name": "diaryHolderCheck",
      "outputs": [
        {
          "internalType": "bool",
          "name": "",
          "type": "bool"
        }
      ],
      "stateMutability": "view",
      "type": "function",
      "constant": true
    }
  ],
  "bytecode": "0x60806040523480156200001157600080fd5b506040518060400160405280601281526020017f4d656d6f72794275726e696e67546f6b656e00000000000000000000000000008152506040518060400160405280600381526020017f4d4254000000000000000000000000000000000000000000000000000000000081525081600390816200008f9190620004d0565b508060049081620000a19190620004d0565b505050620000b96000801b33620000f160201b60201c565b620000eb7f9f2df0fed2c77648de5860a4cc508cd0818c85b8b8a1ab4ceeef8d981c8956a633620000f160201b60201c565b620005b7565b620001038282620001e360201b60201c565b620001df5760016005600084815260200190815260200160002060000160008373ffffffffffffffffffffffffffffffffffffffff1673ffffffffffffffffffffffffffffffffffffffff16815260200190815260200160002060006101000a81548160ff021916908315150217905550620001846200024e60201b60201c565b73ffffffffffffffffffffffffffffffffffffffff168173ffffffffffffffffffffffffffffffffffffffff16837f2f8788117e7eff1d82e926ec794901d17c78024a50270940304540a733656f0d60405160405180910390a45b5050565b60006005600084815260200190815260200160002060000160008373ffffffffffffffffffffffffffffffffffffffff1673ffffffffffffffffffffffffffffffffffffffff16815260200190815260200160002060009054906101000a900460ff16905092915050565b600033905090565b600081519050919050565b7f4e487b7100000000000000000000000000000000000000000000000000000000600052604160045260246000fd5b7f4e487b7100000000000000000000000000000000000000000000000000000000600052602260045260246000fd5b60006002820490506001821680620002d857607f821691505b602082108103620002ee57620002ed62000290565b5b50919050565b60008190508160005260206000209050919050565b60006020601f8301049050919050565b600082821b905092915050565b600060088302620003587fffffffffffffffffffffffffffffffffffffffffffffffffffffffffffffffff8262000319565b62000364868362000319565b95508019841693508086168417925050509392505050565b6000819050919050565b6000819050919050565b6000620003b1620003ab620003a5846200037c565b62000386565b6200037c565b9050919050565b6000819050919050565b620003cd8362000390565b620003e5620003dc82620003b8565b84845462000326565b825550505050565b600090565b620003fc620003ed565b62000409818484620003c2565b505050565b5b81811015620004315762000425600082620003f2565b6001810190506200040f565b5050565b601f82111562000480576200044a81620002f4565b620004558462000309565b8101602085101562000465578190505b6200047d620004748562000309565b8301826200040e565b50505b505050565b600082821c905092915050565b6000620004a56000198460080262000485565b1980831691505092915050565b6000620004c0838362000492565b9150826002028217905092915050565b620004db8262000256565b67ffffffffffffffff811115620004f757620004f662000261565b5b620005038254620002bf565b6200051082828562000435565b600060209050601f83116001811462000548576000841562000533578287015190505b6200053f8582620004b2565b865550620005af565b601f1984166200055886620002f4565b60005b8281101562000582578489015182556001820191506020850194506020810190506200055b565b86831015620005a257848901516200059e601f89168262000492565b8355505b6001600288020188555050505b505050505050565b612b8e80620005c76000396000f3fe608060405234801561001057600080fd5b506004361061018e5760003560e01c806344df8e70116100de57806395d89b4111610097578063a9059cbb11610071578063a9059cbb14610471578063d5391393146104a1578063d547741f146104bf578063dd62ed3e146104db5761018e565b806395d89b4114610405578063a217fddf14610423578063a457c2d7146104415761018e565b806344df8e701461036b57806370a082311461037557806374402d21146103a557806379cc6790146103af57806391d14854146103cb578063959af0dc146103fb5761018e565b8063248a9ca31161014b57806336568abe1161012557806336568abe146102e7578063395093511461030357806340c10f191461033357806342966c681461034f5761018e565b8063248a9ca31461027d5780632f2ff15d146102ad578063313ce567146102c95761018e565b806301ffc9a71461019357806306fdde03146101c3578063095ea7b3146101e157806318160ddd146102115780631f7403d21461022f57806323b872dd1461024d575b600080fd5b6101ad60048036038101906101a89190611bca565b61050b565b6040516101ba9190611c12565b60405180910390f35b6101cb610585565b6040516101d89190611cbd565b60405180910390f35b6101fb60048036038101906101f69190611d73565b610617565b6040516102089190611c12565b60405180910390f35b61021961063a565b6040516102269190611dc2565b60405180910390f35b610237610644565b6040516102449190611c12565b60405180910390f35b61026760048036038101906102629190611ddd565b610698565b6040516102749190611c12565b60405180910390f35b61029760048036038101906102929190611e66565b6106c7565b6040516102a49190611ea2565b60405180910390f35b6102c760048036038101906102c29190611ebd565b6106e7565b005b6102d1610708565b6040516102de9190611f19565b60405180910390f35b61030160048036038101906102fc9190611ebd565b610711565b005b61031d60048036038101906103189190611d73565b610794565b60405161032a9190611c12565b60405180910390f35b61034d60048036038101906103489190611d73565b6107cb565b005b61036960048036038101906103649190611f34565b610804565b005b610373610818565b005b61038f600480360381019061038a9190611f61565b61097b565b60405161039c9190611dc2565b60405180910390f35b6103ad6109c3565b005b6103c960048036038101906103c49190611d73565b610b11565b005b6103e560048036038101906103e09190611ebd565b610b31565b6040516103f29190611c12565b60405180910390f35b610403610b9c565b005b61040d610c39565b60405161041a9190611cbd565b60405180910390f35b61042b610ccb565b6040516104389190611ea2565b60405180910390f35b61045b60048036038101906104569190611d73565b610cd2565b6040516104689190611c12565b60405180910390f35b61048b60048036038101906104869190611d73565b610d49565b6040516104989190611c12565b60405180910390f35b6104a9610d6c565b6040516104b69190611ea2565b60405180910390f35b6104d960048036038101906104d49190611ebd565b610d90565b005b6104f560048036038101906104f09190611f8e565b610db1565b6040516105029190611dc2565b60405180910390f35b60007f7965db0b000000000000000000000000000000000000000000000000000000007bffffffffffffffffffffffffffffffffffffffffffffffffffffffff1916827bffffffffffffffffffffffffffffffffffffffffffffffffffffffff1916148061057e575061057d82610e38565b5b9050919050565b60606003805461059490611ffd565b80601f01602080910402602001604051908101604052809291908181526020018280546105c090611ffd565b801561060d5780601f106105e25761010080835404028352916020019161060d565b820191906000526020600020905b8154815290600101906020018083116105f057829003601f168201915b5050505050905090565b600080610622610ea2565b905061062f818585610eaa565b600191505092915050565b6000600254905090565b6000600660003373ffffffffffffffffffffffffffffffffffffffff1673ffffffffffffffffffffffffffffffffffffffff16815260200190815260200160002060009054906101000a900460ff16905090565b6000806106a3610ea2565b90506106b0858285611073565b6106bb8585856110ff565b60019150509392505050565b600060056000838152602001908152602001600020600101549050919050565b6106f0826106c7565b6106f98161137e565b6107038383611392565b505050565b60006012905090565b610719610ea2565b73ffffffffffffffffffffffffffffffffffffffff168173ffffffffffffffffffffffffffffffffffffffff1614610786576040517f08c379a000000000000000000000000000000000000000000000000000000000815260040161077d906120a0565b60405180910390fd5b6107908282611473565b5050565b60008061079f610ea2565b90506107c08185856107b18589610db1565b6107bb91906120ef565b610eaa565b600191505092915050565b7f9f2df0fed2c77648de5860a4cc508cd0818c85b8b8a1ab4ceeef8d981c8956a66107f58161137e565b6107ff8383611555565b505050565b61081561080f610ea2565b826116b4565b50565b600660003373ffffffffffffffffffffffffffffffffffffffff1673ffffffffffffffffffffffffffffffffffffffff16815260200190815260200160002060009054906101000a900460ff166108a4576040517f08c379a000000000000000000000000000000000000000000000000000000000815260040161089b9061216f565b60405180910390fd5b6108ac610708565b600a6108b891906122c2565b600a6108c4919061230d565b6108cd3361097b565b1161090d576040517f08c379a00000000000000000000000000000000000000000000000000000000081526004016109049061239b565b60405180910390fd5b61093633610919610708565b600a61092591906122c2565b6001610931919061230d565b6116b4565b3373ffffffffffffffffffffffffffffffffffffffff167fa7509b837bd682d7e733f9bba758c1a39c72bd8f2a6d47a7ab048524def3e8f560405160405180910390a2565b60008060008373ffffffffffffffffffffffffffffffffffffffff1673ffffffffffffffffffffffffffffffffffffffff168152602001908152602001600020549050919050565b600660003373ffffffffffffffffffffffffffffffffffffffff1673ffffffffffffffffffffffffffffffffffffffff16815260200190815260200160002060009054906101000a900460ff16610a4f576040517f08c379a0000000000000000000000000000000000000000000000000000000008152600401610a469061216f565b60405180910390fd5b610a797f9f2df0fed2c77648de5860a4cc508cd0818c85b8b8a1ab4ceeef8d981c8956a633611392565b610aa233610a85610708565b600a610a9191906122c2565b600a610a9d919061230d565b6107cb565b610acc7f9f2df0fed2c77648de5860a4cc508cd0818c85b8b8a1ab4ceeef8d981c8956a633611473565b3373ffffffffffffffffffffffffffffffffffffffff167f1e7269c5e216aef80eb002ee0e06475f7f15cded97ccfed2584a614250688d5260405160405180910390a2565b610b2382610b1d610ea2565b83611073565b610b2d82826116b4565b5050565b60006005600084815260200190815260200160002060000160008373ffffffffffffffffffffffffffffffffffffffff1673ffffffffffffffffffffffffffffffffffffffff16815260200190815260200160002060009054906101000a900460ff16905092915050565b6001600660003373ffffffffffffffffffffffffffffffffffffffff1673ffffffffffffffffffffffffffffffffffffffff16815260200190815260200160002060006101000a81548160ff0219169083151502179055503373ffffffffffffffffffffffffffffffffffffffff167fd1226e52618d3819e60d100b6f491db656b477d26ac944103eaa21cab2a538ef60405160405180910390a2565b606060048054610c4890611ffd565b80601f0160208091040260200160405190810160405280929190818152602001828054610c7490611ffd565b8015610cc15780601f10610c9657610100808354040283529160200191610cc1565b820191906000526020600020905b815481529060010190602001808311610ca457829003601f168201915b5050505050905090565b6000801b81565b600080610cdd610ea2565b90506000610ceb8286610db1565b905083811015610d30576040517f08c379a0000000000000000000000000000000000000000000000000000000008152600401610d279061242d565b60405180910390fd5b610d3d8286868403610eaa565b60019250505092915050565b600080610d54610ea2565b9050610d618185856110ff565b600191505092915050565b7f9f2df0fed2c77648de5860a4cc508cd0818c85b8b8a1ab4ceeef8d981c8956a681565b610d99826106c7565b610da28161137e565b610dac8383611473565b505050565b6000600160008473ffffffffffffffffffffffffffffffffffffffff1673ffffffffffffffffffffffffffffffffffffffff16815260200190815260200160002060008373ffffffffffffffffffffffffffffffffffffffff1673ffffffffffffffffffffffffffffffffffffffff16815260200190815260200160002054905092915050565b60007f01ffc9a7000000000000000000000000000000000000000000000000000000007bffffffffffffffffffffffffffffffffffffffffffffffffffffffff1916827bffffffffffffffffffffffffffffffffffffffffffffffffffffffff1916149050919050565b600033905090565b600073ffffffffffffffffffffffffffffffffffffffff168373ffffffffffffffffffffffffffffffffffffffff1603610f19576040517f08c379a0000000000000000000000000000000000000000000000000000000008152600401610f10906124bf565b60405180910390fd5b600073ffffffffffffffffffffffffffffffffffffffff168273ffffffffffffffffffffffffffffffffffffffff1603610f88576040517f08c379a0000000000000000000000000000000000000000000000000000000008152600401610f7f90612551565b60405180910390fd5b80600160008573ffffffffffffffffffffffffffffffffffffffff1673ffffffffffffffffffffffffffffffffffffffff16815260200190815260200160002060008473ffffffffffffffffffffffffffffffffffffffff1673ffffffffffffffffffffffffffffffffffffffff168152602001908152602001600020819055508173ffffffffffffffffffffffffffffffffffffffff168373ffffffffffffffffffffffffffffffffffffffff167f8c5be1e5ebec7d5bd14f71427d1e84f3dd0314c0f7b2291e5b200ac8c7c3b925836040516110669190611dc2565b60405180910390a3505050565b600061107f8484610db1565b90507fffffffffffffffffffffffffffffffffffffffffffffffffffffffffffffffff81146110f957818110156110eb576040517f08c379a00000000000000000000000000000000000000000000000000000000081526004016110e2906125bd565b60405180910390fd5b6110f88484848403610eaa565b5b50505050565b600073ffffffffffffffffffffffffffffffffffffffff168373ffffffffffffffffffffffffffffffffffffffff160361116e576040517f08c379a00000000000000000000000000000000000000000000000000000000081526004016111659061264f565b60405180910390fd5b600073ffffffffffffffffffffffffffffffffffffffff168273ffffffffffffffffffffffffffffffffffffffff16036111dd576040517f08c379a00000000000000000000000000000000000000000000000000000000081526004016111d4906126e1565b60405180910390fd5b6111e883838361188a565b60008060008573ffffffffffffffffffffffffffffffffffffffff1673ffffffffffffffffffffffffffffffffffffffff1681526020019081526020016000205490508181101561126e576040517f08c379a000000000000000000000000000000000000000000000000000000000815260040161126590612773565b60405180910390fd5b8181036000808673ffffffffffffffffffffffffffffffffffffffff1673ffffffffffffffffffffffffffffffffffffffff16815260200190815260200160002081905550816000808573ffffffffffffffffffffffffffffffffffffffff1673ffffffffffffffffffffffffffffffffffffffff168152602001908152602001600020600082825461130191906120ef565b925050819055508273ffffffffffffffffffffffffffffffffffffffff168473ffffffffffffffffffffffffffffffffffffffff167fddf252ad1be2c89b69c2b068fc378daa952ba7f163c4a11628f55a4df523b3ef846040516113659190611dc2565b60405180910390a361137884848461188f565b50505050565b61138f8161138a610ea2565b611894565b50565b61139c8282610b31565b61146f5760016005600084815260200190815260200160002060000160008373ffffffffffffffffffffffffffffffffffffffff1673ffffffffffffffffffffffffffffffffffffffff16815260200190815260200160002060006101000a81548160ff021916908315150217905550611414610ea2565b73ffffffffffffffffffffffffffffffffffffffff168173ffffffffffffffffffffffffffffffffffffffff16837f2f8788117e7eff1d82e926ec794901d17c78024a50270940304540a733656f0d60405160405180910390a45b5050565b61147d8282610b31565b156115515760006005600084815260200190815260200160002060000160008373ffffffffffffffffffffffffffffffffffffffff1673ffffffffffffffffffffffffffffffffffffffff16815260200190815260200160002060006101000a81548160ff0219169083151502179055506114f6610ea2565b73ffffffffffffffffffffffffffffffffffffffff168173ffffffffffffffffffffffffffffffffffffffff16837ff6391f5c32d9c69d2a47ea670b442974b53935d1edc7fd64eb21e047a839171b60405160405180910390a45b5050565b600073ffffffffffffffffffffffffffffffffffffffff168273ffffffffffffffffffffffffffffffffffffffff16036115c4576040517f08c379a00000000000000000000000000000000000000000000000000000000081526004016115bb906127df565b60405180910390fd5b6115d06000838361188a565b80600260008282546115e291906120ef565b92505081905550806000808473ffffffffffffffffffffffffffffffffffffffff1673ffffffffffffffffffffffffffffffffffffffff168152602001908152602001600020600082825461163791906120ef565b925050819055508173ffffffffffffffffffffffffffffffffffffffff16600073ffffffffffffffffffffffffffffffffffffffff167fddf252ad1be2c89b69c2b068fc378daa952ba7f163c4a11628f55a4df523b3ef8360405161169c9190611dc2565b60405180910390a36116b06000838361188f565b5050565b600073ffffffffffffffffffffffffffffffffffffffff168273ffffffffffffffffffffffffffffffffffffffff1603611723576040517f08c379a000000000000000000000000000000000000000000000000000000000815260040161171a90612871565b60405180910390fd5b61172f8260008361188a565b60008060008473ffffffffffffffffffffffffffffffffffffffff1673ffffffffffffffffffffffffffffffffffffffff168152602001908152602001600020549050818110156117b5576040517f08c379a00000000000000000000000000000000000000000000000000000000081526004016117ac90612903565b60405180910390fd5b8181036000808573ffffffffffffffffffffffffffffffffffffffff1673ffffffffffffffffffffffffffffffffffffffff16815260200190815260200160002081905550816002600082825461180c9190612923565b92505081905550600073ffffffffffffffffffffffffffffffffffffffff168373ffffffffffffffffffffffffffffffffffffffff167fddf252ad1be2c89b69c2b068fc378daa952ba7f163c4a11628f55a4df523b3ef846040516118719190611dc2565b60405180910390a36118858360008461188f565b505050565b505050565b505050565b61189e8282610b31565b61192d576118c38173ffffffffffffffffffffffffffffffffffffffff166014611931565b6118d18360001c6020611931565b6040516020016118e2929190612a2b565b6040516020818303038152906040526040517f08c379a00000000000000000000000000000000000000000000000000000000081526004016119249190611cbd565b60405180910390fd5b5050565b606060006002836002611944919061230d565b61194e91906120ef565b67ffffffffffffffff81111561196757611966612a65565b5b6040519080825280601f01601f1916602001820160405280156119995781602001600182028036833780820191505090505b5090507f3000000000000000000000000000000000000000000000000000000000000000816000815181106119d1576119d0612a94565b5b60200101907effffffffffffffffffffffffffffffffffffffffffffffffffffffffffffff1916908160001a9053507f780000000000000000000000000000000000000000000000000000000000000081600181518110611a3557611a34612a94565b5b60200101907effffffffffffffffffffffffffffffffffffffffffffffffffffffffffffff1916908160001a90535060006001846002611a75919061230d565b611a7f91906120ef565b90505b6001811115611b1f577f3031323334353637383961626364656600000000000000000000000000000000600f861660108110611ac157611ac0612a94565b5b1a60f81b828281518110611ad857611ad7612a94565b5b60200101907effffffffffffffffffffffffffffffffffffffffffffffffffffffffffffff1916908160001a905350600485901c945080611b1890612ac3565b9050611a82565b5060008414611b63576040517f08c379a0000000000000000000000000000000000000000000000000000000008152600401611b5a90612b38565b60405180910390fd5b8091505092915050565b600080fd5b60007fffffffff0000000000000000000000000000000000000000000000000000000082169050919050565b611ba781611b72565b8114611bb257600080fd5b50565b600081359050611bc481611b9e565b92915050565b600060208284031215611be057611bdf611b6d565b5b6000611bee84828501611bb5565b91505092915050565b60008115159050919050565b611c0c81611bf7565b82525050565b6000602082019050611c276000830184611c03565b92915050565b600081519050919050565b600082825260208201905092915050565b60005b83811015611c67578082015181840152602081019050611c4c565b60008484015250505050565b6000601f19601f8301169050919050565b6000611c8f82611c2d565b611c998185611c38565b9350611ca9818560208601611c49565b611cb281611c73565b840191505092915050565b60006020820190508181036000830152611cd78184611c84565b905092915050565b600073ffffffffffffffffffffffffffffffffffffffff82169050919050565b6000611d0a82611cdf565b9050919050565b611d1a81611cff565b8114611d2557600080fd5b50565b600081359050611d3781611d11565b92915050565b6000819050919050565b611d5081611d3d565b8114611d5b57600080fd5b50565b600081359050611d6d81611d47565b92915050565b60008060408385031215611d8a57611d89611b6d565b5b6000611d9885828601611d28565b9250506020611da985828601611d5e565b9150509250929050565b611dbc81611d3d565b82525050565b6000602082019050611dd76000830184611db3565b92915050565b600080600060608486031215611df657611df5611b6d565b5b6000611e0486828701611d28565b9350506020611e1586828701611d28565b9250506040611e2686828701611d5e565b9150509250925092565b6000819050919050565b611e4381611e30565b8114611e4e57600080fd5b50565b600081359050611e6081611e3a565b92915050565b600060208284031215611e7c57611e7b611b6d565b5b6000611e8a84828501611e51565b91505092915050565b611e9c81611e30565b82525050565b6000602082019050611eb76000830184611e93565b92915050565b60008060408385031215611ed457611ed3611b6d565b5b6000611ee285828601611e51565b9250506020611ef385828601611d28565b9150509250929050565b600060ff82169050919050565b611f1381611efd565b82525050565b6000602082019050611f2e6000830184611f0a565b92915050565b600060208284031215611f4a57611f49611b6d565b5b6000611f5884828501611d5e565b91505092915050565b600060208284031215611f7757611f76611b6d565b5b6000611f8584828501611d28565b91505092915050565b60008060408385031215611fa557611fa4611b6d565b5b6000611fb385828601611d28565b9250506020611fc485828601611d28565b9150509250929050565b7f4e487b7100000000000000000000000000000000000000000000000000000000600052602260045260246000fd5b6000600282049050600182168061201557607f821691505b60208210810361202857612027611fce565b5b50919050565b7f416363657373436f6e74726f6c3a2063616e206f6e6c792072656e6f756e636560008201527f20726f6c657320666f722073656c660000000000000000000000000000000000602082015250565b600061208a602f83611c38565b91506120958261202e565b604082019050919050565b600060208201905081810360008301526120b98161207d565b9050919050565b7f4e487b7100000000000000000000000000000000000000000000000000000000600052601160045260246000fd5b60006120fa82611d3d565b915061210583611d3d565b925082820190508082111561211d5761211c6120c0565b5b92915050565b7f4e6f7420446961727920686f6c64657200000000000000000000000000000000600082015250565b6000612159601083611c38565b915061216482612123565b602082019050919050565b600060208201905081810360008301526121888161214c565b9050919050565b60008160011c9050919050565b6000808291508390505b60018511156121e6578086048111156121c2576121c16120c0565b5b60018516156121d15780820291505b80810290506121df8561218f565b94506121a6565b94509492505050565b6000826121ff57600190506122bb565b8161220d57600090506122bb565b8160018114612223576002811461222d5761225c565b60019150506122bb565b60ff84111561223f5761223e6120c0565b5b8360020a915084821115612256576122556120c0565b5b506122bb565b5060208310610133831016604e8410600b84101617156122915782820a90508381111561228c5761228b6120c0565b5b6122bb565b61229e848484600161219c565b925090508184048111156122b5576122b46120c0565b5b81810290505b9392505050565b60006122cd82611d3d565b91506122d883611efd565b92506123057fffffffffffffffffffffffffffffffffffffffffffffffffffffffffffffffff84846121ef565b905092915050565b600061231882611d3d565b915061232383611d3d565b925082820261233181611d3d565b91508282048414831517612348576123476120c0565b5b5092915050565b7f4e6f74206861766520656e6f756768206d6f6e65792e00000000000000000000600082015250565b6000612385601683611c38565b91506123908261234f565b602082019050919050565b600060208201905081810360008301526123b481612378565b9050919050565b7f45524332303a2064656372656173656420616c6c6f77616e63652062656c6f7760008201527f207a65726f000000000000000000000000000000000000000000000000000000602082015250565b6000612417602583611c38565b9150612422826123bb565b604082019050919050565b600060208201905081810360008301526124468161240a565b9050919050565b7f45524332303a20617070726f76652066726f6d20746865207a65726f2061646460008201527f7265737300000000000000000000000000000000000000000000000000000000602082015250565b60006124a9602483611c38565b91506124b48261244d565b604082019050919050565b600060208201905081810360008301526124d88161249c565b9050919050565b7f45524332303a20617070726f766520746f20746865207a65726f20616464726560008201527f7373000000000000000000000000000000000000000000000000000000000000602082015250565b600061253b602283611c38565b9150612546826124df565b604082019050919050565b6000602082019050818103600083015261256a8161252e565b9050919050565b7f45524332303a20696e73756666696369656e7420616c6c6f77616e6365000000600082015250565b60006125a7601d83611c38565b91506125b282612571565b602082019050919050565b600060208201905081810360008301526125d68161259a565b9050919050565b7f45524332303a207472616e736665722066726f6d20746865207a65726f20616460008201527f6472657373000000000000000000000000000000000000000000000000000000602082015250565b6000612639602583611c38565b9150612644826125dd565b604082019050919050565b600060208201905081810360008301526126688161262c565b9050919050565b7f45524332303a207472616e7366657220746f20746865207a65726f206164647260008201527f6573730000000000000000000000000000000000000000000000000000000000602082015250565b60006126cb602383611c38565b91506126d68261266f565b604082019050919050565b600060208201905081810360008301526126fa816126be565b9050919050565b7f45524332303a207472616e7366657220616d6f756e742065786365656473206260008201527f616c616e63650000000000000000000000000000000000000000000000000000602082015250565b600061275d602683611c38565b915061276882612701565b604082019050919050565b6000602082019050818103600083015261278c81612750565b9050919050565b7f45524332303a206d696e7420746f20746865207a65726f206164647265737300600082015250565b60006127c9601f83611c38565b91506127d482612793565b602082019050919050565b600060208201905081810360008301526127f8816127bc565b9050919050565b7f45524332303a206275726e2066726f6d20746865207a65726f2061646472657360008201527f7300000000000000000000000000000000000000000000000000000000000000602082015250565b600061285b602183611c38565b9150612866826127ff565b604082019050919050565b6000602082019050818103600083015261288a8161284e565b9050919050565b7f45524332303a206275726e20616d6f756e7420657863656564732062616c616e60008201527f6365000000000000000000000000000000000000000000000000000000000000602082015250565b60006128ed602283611c38565b91506128f882612891565b604082019050919050565b6000602082019050818103600083015261291c816128e0565b9050919050565b600061292e82611d3d565b915061293983611d3d565b9250828203905081811115612951576129506120c0565b5b92915050565b600081905092915050565b7f416363657373436f6e74726f6c3a206163636f756e7420000000000000000000600082015250565b6000612998601783612957565b91506129a382612962565b601782019050919050565b60006129b982611c2d565b6129c38185612957565b93506129d3818560208601611c49565b80840191505092915050565b7f206973206d697373696e6720726f6c6520000000000000000000000000000000600082015250565b6000612a15601183612957565b9150612a20826129df565b601182019050919050565b6000612a368261298b565b9150612a4282856129ae565b9150612a4d82612a08565b9150612a5982846129ae565b91508190509392505050565b7f4e487b7100000000000000000000000000000000000000000000000000000000600052604160045260246000fd5b7f4e487b7100000000000000000000000000000000000000000000000000000000600052603260045260246000fd5b6000612ace82611d3d565b915060008203612ae157612ae06120c0565b5b600182039050919050565b7f537472696e67733a20686578206c656e67746820696e73756666696369656e74600082015250565b6000612b22602083611c38565b9150612b2d82612aec565b602082019050919050565b60006020820190508181036000830152612b5181612b15565b905091905056fea2646970667358221220f525516d8dffb76a115ccf1fc533a9f982047e0ce682d346468b586d667c559464736f6c63430008110033",
  "immutableReferences": {},
  "source": "// SPDX-License-Identifier: MIT\r\npragma solidity ^0.8.4;\r\n\r\nimport \"@openzeppelin/contracts/token/ERC20/ERC20.sol\";\r\nimport \"@openzeppelin/contracts/token/ERC20/extensions/ERC20Burnable.sol\";\r\nimport \"@openzeppelin/contracts/access/AccessControl.sol\";\r\n\r\ncontract MemoryToEarn is ERC20, ERC20Burnable, AccessControl {\r\n\r\n    bytes32 public constant MINTER_ROLE = keccak256(\"MINTER_ROLE\");\r\n    mapping (address=>bool) diaryHolder;\r\n\r\n    event newDiaryHolder(address indexed holder);\r\n    event minted(address indexed holder);\r\n    event burned(address indexed holder);\r\n\r\n    modifier onlyDiaryHolder (){\r\n        require(diaryHolder[msg.sender], \"Not Diary holder\");\r\n        _;\r\n    }\r\n\r\n    constructor() ERC20(\"MemoryBurningToken\", \"MBT\") {\r\n        _grantRole(DEFAULT_ADMIN_ROLE, msg.sender);\r\n        _grantRole(MINTER_ROLE, msg.sender);\r\n    }\r\n\r\n    function mint(address to, uint256 amount) public onlyRole(MINTER_ROLE) {\r\n        _mint(to, amount);\r\n    }\r\n\r\n    function burn() public onlyDiaryHolder {\r\n        require(balanceOf(msg.sender) > 10 * 10 ** decimals(), \"Not have enough money.\");\r\n        _burn(msg.sender, 1 * 10 ** decimals());\r\n        emit burned(msg.sender);\r\n    }\r\n\r\n    function tempMint() public onlyDiaryHolder {\r\n        _grantRole(MINTER_ROLE, msg.sender);\r\n        mint(msg.sender, 10 * 10 ** decimals());\r\n        _revokeRole(MINTER_ROLE, msg.sender);\r\n        emit minted(msg.sender);\r\n    }\r\n\r\n    function createDiary() public {\r\n        diaryHolder[msg.sender] = true;\r\n        emit newDiaryHolder(msg.sender);\r\n    }\r\n\r\n    function diaryHolderCheck() public view returns (bool) {\r\n        return diaryHolder[msg.sender];\r\n    }\r\n}",
  "sourcePath": "C:\\Users\\rinse\\repos\\memory2earn\\truffle\\contracts\\MemoryToEarn.sol",
  "compiler": {
    "name": "solc",
    "version": "0.8.17+commit.8df45f5f.Emscripten.clang"
  },
  "schemaVersion": "3.4.10",
  "updatedAt": "2022-11-03T06:00:26.420Z",
  "networkType": "ethereum",
  "devdoc": {
    "kind": "dev",
    "methods": {
      "allowance(address,address)": {
        "details": "See {IERC20-allowance}."
      },
      "approve(address,uint256)": {
        "details": "See {IERC20-approve}. NOTE: If `amount` is the maximum `uint256`, the allowance is not updated on `transferFrom`. This is semantically equivalent to an infinite approval. Requirements: - `spender` cannot be the zero address."
      },
      "balanceOf(address)": {
        "details": "See {IERC20-balanceOf}."
      },
      "burn(uint256)": {
        "details": "Destroys `amount` tokens from the caller. See {ERC20-_burn}."
      },
      "burnFrom(address,uint256)": {
        "details": "Destroys `amount` tokens from `account`, deducting from the caller's allowance. See {ERC20-_burn} and {ERC20-allowance}. Requirements: - the caller must have allowance for ``accounts``'s tokens of at least `amount`."
      },
      "decimals()": {
        "details": "Returns the number of decimals used to get its user representation. For example, if `decimals` equals `2`, a balance of `505` tokens should be displayed to a user as `5.05` (`505 / 10 ** 2`). Tokens usually opt for a value of 18, imitating the relationship between Ether and Wei. This is the value {ERC20} uses, unless this function is overridden; NOTE: This information is only used for _display_ purposes: it in no way affects any of the arithmetic of the contract, including {IERC20-balanceOf} and {IERC20-transfer}."
      },
      "decreaseAllowance(address,uint256)": {
        "details": "Atomically decreases the allowance granted to `spender` by the caller. This is an alternative to {approve} that can be used as a mitigation for problems described in {IERC20-approve}. Emits an {Approval} event indicating the updated allowance. Requirements: - `spender` cannot be the zero address. - `spender` must have allowance for the caller of at least `subtractedValue`."
      },
      "getRoleAdmin(bytes32)": {
        "details": "Returns the admin role that controls `role`. See {grantRole} and {revokeRole}. To change a role's admin, use {_setRoleAdmin}."
      },
      "grantRole(bytes32,address)": {
        "details": "Grants `role` to `account`. If `account` had not been already granted `role`, emits a {RoleGranted} event. Requirements: - the caller must have ``role``'s admin role. May emit a {RoleGranted} event."
      },
      "hasRole(bytes32,address)": {
        "details": "Returns `true` if `account` has been granted `role`."
      },
      "increaseAllowance(address,uint256)": {
        "details": "Atomically increases the allowance granted to `spender` by the caller. This is an alternative to {approve} that can be used as a mitigation for problems described in {IERC20-approve}. Emits an {Approval} event indicating the updated allowance. Requirements: - `spender` cannot be the zero address."
      },
      "name()": {
        "details": "Returns the name of the token."
      },
      "renounceRole(bytes32,address)": {
        "details": "Revokes `role` from the calling account. Roles are often managed via {grantRole} and {revokeRole}: this function's purpose is to provide a mechanism for accounts to lose their privileges if they are compromised (such as when a trusted device is misplaced). If the calling account had been revoked `role`, emits a {RoleRevoked} event. Requirements: - the caller must be `account`. May emit a {RoleRevoked} event."
      },
      "revokeRole(bytes32,address)": {
        "details": "Revokes `role` from `account`. If `account` had been granted `role`, emits a {RoleRevoked} event. Requirements: - the caller must have ``role``'s admin role. May emit a {RoleRevoked} event."
      },
      "supportsInterface(bytes4)": {
        "details": "See {IERC165-supportsInterface}."
      },
      "symbol()": {
        "details": "Returns the symbol of the token, usually a shorter version of the name."
      },
      "totalSupply()": {
        "details": "See {IERC20-totalSupply}."
      },
      "transfer(address,uint256)": {
        "details": "See {IERC20-transfer}. Requirements: - `to` cannot be the zero address. - the caller must have a balance of at least `amount`."
      },
      "transferFrom(address,address,uint256)": {
        "details": "See {IERC20-transferFrom}. Emits an {Approval} event indicating the updated allowance. This is not required by the EIP. See the note at the beginning of {ERC20}. NOTE: Does not update the allowance if the current allowance is the maximum `uint256`. Requirements: - `from` and `to` cannot be the zero address. - `from` must have a balance of at least `amount`. - the caller must have allowance for ``from``'s tokens of at least `amount`."
      }
    },
    "version": 1
  },
  "userdoc": {
    "kind": "user",
    "methods": {},
    "version": 1
  }
}